{"abi":[{"type":"constructor","inputs":[{"name":"_usdc","type":"address","internalType":"address"},{"name":"_storkOracle","type":"address","internalType":"address"},{"name":"_cctpMessageTransmitter","type":"address","internalType":"address"}],"stateMutability":"nonpayable"},{"type":"function","name":"MAX_WALLETS_PER_USER","inputs":[],"outputs":[{"name":"","type":"uint256","internalType":"uint256"}],"stateMutability":"view"},{"type":"function","name":"availablePools","inputs":[{"name":"","type":"uint256","internalType":"uint256"}],"outputs":[{"name":"poolAddress","type":"address","internalType":"address"},{"name":"poolName","type":"string","internalType":"string"},{"name":"lastAPY","type":"uint256","internalType":"uint256"},{"name":"lastUpdateTime","type":"uint256","internalType":"uint256"},{"name":"active","type":"bool","internalType":"bool"}],"stateMutability":"view"},{"type":"function","name":"canExecutePolicy","inputs":[{"name":"user","type":"address","internalType":"address"}],"outputs":[{"name":"canExecute","type":"bool","internalType":"bool"},{"name":"reason","type":"string","internalType":"string"}],"stateMutability":"view"},{"type":"function","name":"cctpMessageTransmitter","inputs":[],"outputs":[{"name":"","type":"address","internalType":"contract IMessageTransmitter"}],"stateMutability":"view"},{"type":"function","name":"configureTreasuryPolicy","inputs":[{"name":"balanceThreshold","type":"uint256","internalType":"uint256"},{"name":"autoMode","type":"bool","internalType":"bool"},{"name":"vaultAddress","type":"address","internalType":"address"},{"name":"allowUSDCPool","type":"bool","internalType":"bool"},{"name":"allowUSDTPool","type":"bool","internalType":"bool"},{"name":"cooldownPeriod","type":"uint256","internalType":"uint256"}],"outputs":[],"stateMutability":"nonpayable"},{"type":"function","name":"deposit","inputs":[{"name":"amount","type":"uint256","internalType":"uint256"}],"outputs":[],"stateMutability":"nonpayable"},{"type":"function","name":"disablePolicy","inputs":[],"outputs":[],"stateMutability":"nonpayable"},{"type":"function","name":"emergencyWithdraw","inputs":[{"name":"amount","type":"uint256","internalType":"uint256"}],"outputs":[],"stateMutability":"nonpayable"},{"type":"function","name":"emergencyWithdrawnTotal","inputs":[],"outputs":[{"name":"","type":"uint256","internalType":"uint256"}],"stateMutability":"view"},{"type":"function","name":"executeTreasuryPolicy","inputs":[{"name":"user","type":"address","internalType":"address"}],"outputs":[{"name":"executed","type":"bool","internalType":"bool"}],"stateMutability":"nonpayable"},{"type":"function","name":"getAggregatedBalance","inputs":[{"name":"userId","type":"bytes32","internalType":"bytes32"}],"outputs":[{"name":"balance","type":"uint256","internalType":"uint256"}],"stateMutability":"view"},{"type":"function","name":"getContractBalance","inputs":[],"outputs":[{"name":"","type":"uint256","internalType":"uint256"}],"stateMutability":"view"},{"type":"function","name":"getMultiplePrices","inputs":[{"name":"assetIds","type":"bytes32[]","internalType":"bytes32[]"}],"outputs":[{"name":"prices","type":"int256[]","internalType":"int256[]"},{"name":"timestamps","type":"uint256[]","internalType":"uint256[]"}],"stateMutability":"nonpayable"},{"type":"function","name":"getPrice","inputs":[{"name":"assetId","type":"bytes32","internalType":"bytes32"}],"outputs":[{"name":"price","type":"int256","internalType":"int256"},{"name":"timestamp","type":"uint256","internalType":"uint256"}],"stateMutability":"nonpayable"},{"type":"function","name":"getUserPolicy","inputs":[{"name":"user","type":"address","internalType":"address"}],"outputs":[{"name":"","type":"tuple","internalType":"struct MergeTreasury.TreasuryPolicy","components":[{"name":"balanceThreshold","type":"uint256","internalType":"uint256"},{"name":"enabled","type":"bool","internalType":"bool"},{"name":"autoMode","type":"bool","internalType":"bool"},{"name":"vaultAddress","type":"address","internalType":"address"},{"name":"allowUSDCPool","type":"bool","internalType":"bool"},{"name":"allowUSDTPool","type":"bool","internalType":"bool"},{"name":"lastExecutionTime","type":"uint256","internalType":"uint256"},{"name":"cooldownPeriod","type":"uint256","internalType":"uint256"}]}],"stateMutability":"view"},{"type":"function","name":"getUserWallets","inputs":[{"name":"userId","type":"bytes32","internalType":"bytes32"}],"outputs":[{"name":"wallets","type":"address[]","internalType":"address[]"}],"stateMutability":"view"},{"type":"function","name":"isCctpNonceProcessed","inputs":[{"name":"sourceDomain","type":"uint32","internalType":"uint32"},{"name":"nonce","type":"uint64","internalType":"uint64"}],"outputs":[{"name":"","type":"bool","internalType":"bool"}],"stateMutability":"view"},{"type":"function","name":"owner","inputs":[],"outputs":[{"name":"","type":"address","internalType":"address"}],"stateMutability":"view"},{"type":"function","name":"poolCount","inputs":[],"outputs":[{"name":"","type":"uint256","internalType":"uint256"}],"stateMutability":"view"},{"type":"function","name":"processedCctpNonces","inputs":[{"name":"sourceDomain","type":"uint256","internalType":"uint256"},{"name":"nonce","type":"uint64","internalType":"uint64"}],"outputs":[{"name":"","type":"bool","internalType":"bool"}],"stateMutability":"view"},{"type":"function","name":"pullFunds","inputs":[{"name":"wallet","type":"address","internalType":"address"},{"name":"amount","type":"uint256","internalType":"uint256"}],"outputs":[],"stateMutability":"nonpayable"},{"type":"function","name":"pulledAmount","inputs":[{"name":"wallet","type":"address","internalType":"address"}],"outputs":[{"name":"","type":"uint256","internalType":"uint256"}],"stateMutability":"view"},{"type":"function","name":"receiveCctpMessage","inputs":[{"name":"message","type":"bytes","internalType":"bytes"},{"name":"attestation","type":"bytes","internalType":"bytes"}],"outputs":[],"stateMutability":"nonpayable"},{"type":"function","name":"registerPool","inputs":[{"name":"poolAddress","type":"address","internalType":"address"},{"name":"poolName","type":"string","internalType":"string"},{"name":"initialAPY","type":"uint256","internalType":"uint256"}],"outputs":[],"stateMutability":"nonpayable"},{"type":"function","name":"registerWallet","inputs":[{"name":"userId","type":"bytes32","internalType":"bytes32"},{"name":"wallet","type":"address","internalType":"address"}],"outputs":[],"stateMutability":"nonpayable"},{"type":"function","name":"renounceOwnership","inputs":[],"outputs":[],"stateMutability":"nonpayable"},{"type":"function","name":"setPoolActive","inputs":[{"name":"poolIndex","type":"uint256","internalType":"uint256"},{"name":"active","type":"bool","internalType":"bool"}],"outputs":[],"stateMutability":"nonpayable"},{"type":"function","name":"storkOracle","inputs":[],"outputs":[{"name":"","type":"address","internalType":"contract IStorkOracle"}],"stateMutability":"view"},{"type":"function","name":"totalTreasuryBalance","inputs":[],"outputs":[{"name":"","type":"uint256","internalType":"uint256"}],"stateMutability":"view"},{"type":"function","name":"transferOwnership","inputs":[{"name":"newOwner","type":"address","internalType":"address"}],"outputs":[],"stateMutability":"nonpayable"},{"type":"function","name":"updatePoolAPY","inputs":[{"name":"poolIndex","type":"uint256","internalType":"uint256"},{"name":"newAPY","type":"uint256","internalType":"uint256"}],"outputs":[],"stateMutability":"nonpayable"},{"type":"function","name":"usdc","inputs":[],"outputs":[{"name":"","type":"address","internalType":"contract IERC20"}],"stateMutability":"view"},{"type":"function","name":"userBalances","inputs":[{"name":"","type":"address","internalType":"address"}],"outputs":[{"name":"","type":"uint256","internalType":"uint256"}],"stateMutability":"view"},{"type":"function","name":"userIdBalances","inputs":[{"name":"userId","type":"bytes32","internalType":"bytes32"}],"outputs":[{"name":"","type":"uint256","internalType":"uint256"}],"stateMutability":"view"},{"type":"function","name":"userPolicies","inputs":[{"name":"","type":"address","internalType":"address"}],"outputs":[{"name":"balanceThreshold","type":"uint256","internalType":"uint256"},{"name":"enabled","type":"bool","internalType":"bool"},{"name":"autoMode","type":"bool","internalType":"bool"},{"name":"vaultAddress","type":"address","internalType":"address"},{"name":"allowUSDCPool","type":"bool","internalType":"bool"},{"name":"allowUSDTPool","type":"bool","internalType":"bool"},{"name":"lastExecutionTime","type":"uint256","internalType":"uint256"},{"name":"cooldownPeriod","type":"uint256","internalType":"uint256"}],"stateMutability":"view"},{"type":"function","name":"userWallets","inputs":[{"name":"userId","type":"bytes32","internalType":"bytes32"},{"name":"","type":"uint256","internalType":"uint256"}],"outputs":[{"name":"wallets","type":"address","internalType":"address"}],"stateMutability":"view"},{"type":"function","name":"walletToUser","inputs":[{"name":"wallet","type":"address","internalType":"address"}],"outputs":[{"name":"userId","type":"bytes32","internalType":"bytes32"}],"stateMutability":"view"},{"type":"function","name":"withdraw","inputs":[{"name":"amount","type":"uint256","internalType":"uint256"},{"name":"to","type":"address","internalType":"address"}],"outputs":[],"stateMutability":"nonpayable"},{"type":"function","name":"withdrawByUserId","inputs":[{"name":"userId","type":"bytes32","internalType":"bytes32"},{"name":"amount","type":"uint256","internalType":"uint256"},{"name":"to","type":"address","internalType":"address"}],"outputs":[],"stateMutability":"nonpayable"},{"type":"event","name":"CctpMessageReceived","inputs":[{"name":"sender","type":"address","indexed":true,"internalType":"address"},{"name":"amount","type":"uint256","indexed":false,"internalType":"uint256"},{"name":"sourceDomain","type":"uint32","indexed":false,"internalType":"uint32"},{"name":"nonce","type":"uint64","indexed":false,"internalType":"uint64"},{"name":"timestamp","type":"uint256","indexed":false,"internalType":"uint256"}],"anonymous":false},{"type":"event","name":"EmergencyWithdrawal","inputs":[{"name":"owner","type":"address","indexed":true,"internalType":"address"},{"name":"amount","type":"uint256","indexed":false,"internalType":"uint256"},{"name":"note","type":"string","indexed":false,"internalType":"string"}],"anonymous":false},{"type":"event","name":"FundsPulled","inputs":[{"name":"userId","type":"bytes32","indexed":true,"internalType":"bytes32"},{"name":"wallet","type":"address","indexed":true,"internalType":"address"},{"name":"amount","type":"uint256","indexed":false,"internalType":"uint256"}],"anonymous":false},{"type":"event","name":"OwnershipTransferred","inputs":[{"name":"previousOwner","type":"address","indexed":true,"internalType":"address"},{"name":"newOwner","type":"address","indexed":true,"internalType":"address"}],"anonymous":false},{"type":"event","name":"PaymentReceived","inputs":[{"name":"payer","type":"address","indexed":true,"internalType":"address"},{"name":"amount","type":"uint256","indexed":false,"internalType":"uint256"},{"name":"sourceChainId","type":"uint256","indexed":false,"internalType":"uint256"},{"name":"timestamp","type":"uint256","indexed":false,"internalType":"uint256"}],"anonymous":false},{"type":"event","name":"PolicyConfigured","inputs":[{"name":"user","type":"address","indexed":true,"internalType":"address"},{"name":"balanceThreshold","type":"uint256","indexed":false,"internalType":"uint256"},{"name":"autoMode","type":"bool","indexed":false,"internalType":"bool"}],"anonymous":false},{"type":"event","name":"PolicyDisabled","inputs":[{"name":"user","type":"address","indexed":true,"internalType":"address"}],"anonymous":false},{"type":"event","name":"PolicyExecuted","inputs":[{"name":"user","type":"address","indexed":true,"internalType":"address"},{"name":"amount","type":"uint256","indexed":false,"internalType":"uint256"},{"name":"destination","type":"address","indexed":true,"internalType":"address"},{"name":"strategy","type":"string","indexed":false,"internalType":"string"},{"name":"timestamp","type":"uint256","indexed":false,"internalType":"uint256"}],"anonymous":false},{"type":"event","name":"PoolAPYUpdated","inputs":[{"name":"poolId","type":"uint256","indexed":true,"internalType":"uint256"},{"name":"poolName","type":"string","indexed":false,"internalType":"string"},{"name":"newAPY","type":"uint256","indexed":false,"internalType":"uint256"},{"name":"timestamp","type":"uint256","indexed":false,"internalType":"uint256"}],"anonymous":false},{"type":"event","name":"PoolRegistered","inputs":[{"name":"poolId","type":"uint256","indexed":true,"internalType":"uint256"},{"name":"poolName","type":"string","indexed":false,"internalType":"string"},{"name":"poolAddress","type":"address","indexed":false,"internalType":"address"}],"anonymous":false},{"type":"event","name":"PoolStatusChanged","inputs":[{"name":"poolId","type":"uint256","indexed":true,"internalType":"uint256"},{"name":"active","type":"bool","indexed":false,"internalType":"bool"}],"anonymous":false},{"type":"event","name":"PriceFetched","inputs":[{"name":"assetId","type":"bytes32","indexed":true,"internalType":"bytes32"},{"name":"price","type":"int256","indexed":false,"internalType":"int256"},{"name":"timestamp","type":"uint256","indexed":false,"internalType":"uint256"}],"anonymous":false},{"type":"event","name":"TreasuryDeposit","inputs":[{"name":"from","type":"address","indexed":true,"internalType":"address"},{"name":"amount","type":"uint256","indexed":false,"internalType":"uint256"}],"anonymous":false},{"type":"event","name":"WalletRegistered","inputs":[{"name":"userId","type":"bytes32","indexed":true,"internalType":"bytes32"},{"name":"wallet","type":"address","indexed":false,"internalType":"address"}],"anonymous":false},{"type":"event","name":"Withdrawal","inputs":[{"name":"user","type":"address","indexed":true,"internalType":"address"},{"name":"amount","type":"uint256","indexed":false,"internalType":"uint256"},{"name":"to","type":"address","indexed":true,"internalType":"address"},{"name":"timestamp","type":"uint256","indexed":false,"internalType":"uint256"}],"anonymous":false},{"type":"event","name":"WithdrawalByUserId","inputs":[{"name":"userId","type":"bytes32","indexed":true,"internalType":"bytes32"},{"name":"amount","type":"uint256","indexed":false,"internalType":"uint256"},{"name":"to","type":"address","indexed":true,"internalType":"address"},{"name":"timestamp","type":"uint256","indexed":false,"internalType":"uint256"}],"anonymous":false},{"type":"error","name":"OwnableInvalidOwner","inputs":[{"name":"owner","type":"address","internalType":"address"}]},{"type":"error","name":"OwnableUnauthorizedAccount","inputs":[{"name":"account","type":"address","internalType":"address"}]},{"type":"error","name":"ReentrancyGuardReentrantCall","inputs":[]}],"bytecode":{"object":"0x60e060405234801561000f575f5ffd5b506040516161ec3803806161ec83398181016040528101906100319190610415565b335f73ffffffffffffffffffffffffffffffffffffffff168173ffffffffffffffffffffffffffffffffffffffff16036100a2575f6040517f1e4fbdf70000000000000000000000000000000000000000000000000000000081526004016100999190610474565b60405180910390fd5b6100b1816102c460201b60201c565b5060016100d06100c561038560201b60201c565b6103ae60201b60201c565b5f01819055505f73ffffffffffffffffffffffffffffffffffffffff168373ffffffffffffffffffffffffffffffffffffffff1603610144576040517f08c379a000000000000000000000000000000000000000000000000000000000815260040161013b906104e7565b60405180910390fd5b5f73ffffffffffffffffffffffffffffffffffffffff168273ffffffffffffffffffffffffffffffffffffffff16036101b2576040517f08c379a00000000000000000000000000000000000000000000000000000000081526004016101a99061054f565b60405180910390fd5b5f73ffffffffffffffffffffffffffffffffffffffff168173ffffffffffffffffffffffffffffffffffffffff1603610220576040517f08c379a0000000000000000000000000000000000000000000000000000000008152600401610217906105b7565b60405180910390fd5b8273ffffffffffffffffffffffffffffffffffffffff1660808173ffffffffffffffffffffffffffffffffffffffff16815250508173ffffffffffffffffffffffffffffffffffffffff1660a08173ffffffffffffffffffffffffffffffffffffffff16815250508073ffffffffffffffffffffffffffffffffffffffff1660c08173ffffffffffffffffffffffffffffffffffffffff16815250505050506105d5565b5f5f5f9054906101000a900473ffffffffffffffffffffffffffffffffffffffff169050815f5f6101000a81548173ffffffffffffffffffffffffffffffffffffffff021916908373ffffffffffffffffffffffffffffffffffffffff1602179055508173ffffffffffffffffffffffffffffffffffffffff168173ffffffffffffffffffffffffffffffffffffffff167f8be0079c531659141344cd1fd0a4f28419497f9722a3daafe3b4186f6b6457e060405160405180910390a35050565b5f7f9b779b17422d0df92223018b32b4d1fa46e071723d6817e2486d003becc55f005f1b905090565b5f819050919050565b5f5ffd5b5f73ffffffffffffffffffffffffffffffffffffffff82169050919050565b5f6103e4826103bb565b9050919050565b6103f4816103da565b81146103fe575f5ffd5b50565b5f8151905061040f816103eb565b92915050565b5f5f5f6060848603121561042c5761042b6103b7565b5b5f61043986828701610401565b935050602061044a86828701610401565b925050604061045b86828701610401565b9150509250925092565b61046e816103da565b82525050565b5f6020820190506104875f830184610465565b92915050565b5f82825260208201905092915050565b7f496e76616c6964205553444320616464726573730000000000000000000000005f82015250565b5f6104d160148361048d565b91506104dc8261049d565b602082019050919050565b5f6020820190508181035f8301526104fe816104c5565b9050919050565b7f496e76616c6964206f7261636c652061646472657373000000000000000000005f82015250565b5f61053960168361048d565b915061054482610505565b602082019050919050565b5f6020820190508181035f8301526105668161052d565b9050919050565b7f496e76616c69642043435450204d6573736167655472616e736d6974746572005f82015250565b5f6105a1601f8361048d565b91506105ac8261056d565b602082019050919050565b5f6020820190508181035f8301526105ce81610595565b9050919050565b60805160a05160c051615b996106535f395f8181610f56015261240f01525f8181610ab0015261117901525f818161096301528181611542015281816116a90152818161172b01528181611b5901528181611d8f01528181611ef8015281816122d50152818161250101528181612b0f0152612bee0152615b995ff3fe608060405234801561000f575f5ffd5b506004361061023a575f3560e01c806380b3037911610139578063c04df428116100b6578063ef8de2d81161007a578063ef8de2d8146106f3578063f2fde38b14610723578063f30b5a761461073f578063f525cb681461076f578063fa5604ee1461078d5761023a565b8063c04df42814610665578063c6cdbcbb14610681578063cc2056cb1461069d578063ea17fa93146106b9578063ec4a59d9146106d55761023a565b80639443cd80116100fd5780639443cd8014610585578063a73de9e4146105b5578063b6b55f25146105e5578063b96091bc14610601578063bb94f919146106315761023a565b806380b30379146104c657806387a22944146104f65780638b47a8801461052d5780638c73eb04146105495780638da5cb5b146105675761023a565b806331d98b3f116101c75780636914512b1161018b5780636914512b146104225780636f9fb98a1461043e578063715018a61461045c578063761d9e68146104665780637c1b7548146104965761023a565b806331d98b3f14610369578063378d23ae1461039a5780633e413bee146103ca5780635312ea8e146103e857806356ae5b7b146104045761023a565b80631b716b771161020e5780631b716b77146102b25780631f913f12146102e357806324e38218146102ff57806326224c641461031b5780632e8b1f9a1461034b5761023a565b8062f714ce1461023e578063053734dc1461025a57806305b2799a1461027857806314fa7009146102a8575b5f5ffd5b6102586004803603810190610253919061397d565b6107be565b005b610262610aae565b60405161026f9190613a16565b60405180910390f35b610292600480360381019061028d9190613aa5565b610ad2565b60405161029f9190613afd565b60405180910390f35b6102b0610b22565b005b6102cc60048036038101906102c79190613b77565b610bbe565b6040516102da929190613d39565b60405180910390f35b6102fd60048036038101906102f89190613d6e565b610d5b565b005b61031960048036038101906103149190613e01565b610e11565b005b61033560048036038101906103309190613e7f565b61115a565b6040516103429190613eb9565b60405180910390f35b61035361116f565b6040516103609190613eb9565b60405180910390f35b610383600480360381019061037e9190613f05565b611175565b604051610391929190613f3f565b60405180910390f35b6103b460048036038101906103af9190613e7f565b611255565b6040516103c19190613afd565b60405180910390f35b6103d26116a7565b6040516103df9190613f86565b60405180910390f35b61040260048036038101906103fd9190613f9f565b6116cb565b005b61040c61187b565b6040516104199190613eb9565b60405180910390f35b61043c60048036038101906104379190613ff4565b611880565b005b610446611b56565b6040516104539190613eb9565b60405180910390f35b610464611bf4565b005b610480600480360381019061047b9190613e7f565b611c07565b60405161048d919061413b565b60405180910390f35b6104b060048036038101906104ab9190613f05565b611d3d565b6040516104bd9190613eb9565b60405180910390f35b6104e060048036038101906104db9190613f05565b611d52565b6040516104ed9190613eb9565b60405180910390f35b610510600480360381019061050b9190613e7f565b612004565b604051610524989796959493929190614164565b60405180910390f35b610547600480360381019061054291906141e0565b61209b565b005b61055161240d565b60405161055e9190614250565b60405180910390f35b61056f612431565b60405161057c9190614269565b60405180910390f35b61059f600480360381019061059a9190614282565b612458565b6040516105ac9190614269565b60405180910390f35b6105cf60048036038101906105ca9190613e7f565b6124a0565b6040516105dc9190613eb9565b60405180910390f35b6105ff60048036038101906105fa9190613f9f565b6124b5565b005b61061b60048036038101906106169190613f05565b61269f565b6040516106289190614368565b60405180910390f35b61064b60048036038101906106469190613f9f565b61273b565b60405161065c9594939291906143f8565b60405180910390f35b61067f600480360381019061067a9190614578565b61281e565b005b61069b600480360381019061069691906145e4565b6129cf565b005b6106b760048036038101906106b29190614622565b612db7565b005b6106d360048036038101906106ce9190614660565b613058565b005b6106dd61310b565b6040516106ea9190613eb9565b60405180910390f35b61070d60048036038101906107089190613e7f565b613111565b60405161071a91906146ad565b60405180910390f35b61073d60048036038101906107389190613e7f565b613126565b005b610759600480360381019061075491906146c6565b6131aa565b6040516107669190613afd565b60405180910390f35b6107776131d4565b6040516107849190613eb9565b60405180910390f35b6107a760048036038101906107a29190613e7f565b6131da565b6040516107b5929190614704565b60405180910390f35b6107c66133a0565b5f73ffffffffffffffffffffffffffffffffffffffff168173ffffffffffffffffffffffffffffffffffffffff1603610834576040517f08c379a000000000000000000000000000000000000000000000000000000000815260040161082b9061477c565b60405180910390fd5b5f8211610876576040517f08c379a000000000000000000000000000000000000000000000000000000000815260040161086d906147e4565b60405180910390fd5b8160025f3373ffffffffffffffffffffffffffffffffffffffff1673ffffffffffffffffffffffffffffffffffffffff1681526020019081526020015f205410156108f6576040517f08c379a00000000000000000000000000000000000000000000000000000000081526004016108ed9061484c565b60405180910390fd5b8160025f3373ffffffffffffffffffffffffffffffffffffffff1673ffffffffffffffffffffffffffffffffffffffff1681526020019081526020015f205f8282546109429190614897565b925050819055508160085f82825461095a9190614897565b925050819055507f000000000000000000000000000000000000000000000000000000000000000073ffffffffffffffffffffffffffffffffffffffff1663a9059cbb82846040518363ffffffff1660e01b81526004016109bc9291906148ca565b6020604051808303815f875af11580156109d8573d5f5f3e3d5ffd5b505050506040513d601f19601f820116820180604052508101906109fc9190614905565b610a3b576040517f08c379a0000000000000000000000000000000000000000000000000000000008152600401610a329061497a565b60405180910390fd5b8073ffffffffffffffffffffffffffffffffffffffff163373ffffffffffffffffffffffffffffffffffffffff167fa708f6433a1b53b1e6af0c278ad548516ef5eab45716a7f85657ee720cd2ece08442604051610a9a929190614998565b60405180910390a3610aaa6133c2565b5050565b7f000000000000000000000000000000000000000000000000000000000000000081565b5f60015f8463ffffffff1681526020019081526020015f205f8367ffffffffffffffff1667ffffffffffffffff1681526020019081526020015f205f9054906101000a900460ff16905092915050565b5f60095f3373ffffffffffffffffffffffffffffffffffffffff1673ffffffffffffffffffffffffffffffffffffffff1681526020019081526020015f206001015f6101000a81548160ff0219169083151502179055503373ffffffffffffffffffffffffffffffffffffffff167ffcad1ade6fc4f9998fd89738cba091fc425e29ce9847693d62d41207051f3a5660405160405180910390a2565b6060808383905067ffffffffffffffff811115610bde57610bdd614454565b5b604051908082528060200260200182016040528015610c0c5781602001602082028036833780820191505090505b5091508383905067ffffffffffffffff811115610c2c57610c2b614454565b5b604051908082528060200260200182016040528015610c5a5781602001602082028036833780820191505090505b5090505f5f90505b84849050811015610d53575f5f3073ffffffffffffffffffffffffffffffffffffffff166331d98b3f888886818110610c9e57610c9d6149bf565b5b905060200201356040518263ffffffff1660e01b8152600401610cc191906146ad565b60408051808303815f875af1158015610cdc573d5f5f3e3d5ffd5b505050506040513d601f19601f82011682018060405250810190610d009190614a2a565b9150915081858481518110610d1857610d176149bf565b5b60200260200101818152505080848481518110610d3857610d376149bf565b5b60200260200101818152505050508080600101915050610c62565b509250929050565b610d636133dc565b600b548210610da7576040517f08c379a0000000000000000000000000000000000000000000000000000000008152600401610d9e90614ab2565b60405180910390fd5b5f600a5f8481526020019081526020015f209050818160020181905550428160030181905550827f9eb6882fcaed178ee74d9121aceb2b2fb4f83d9c4423393596e7faf6269ed0de826001018442604051610e0493929190614bc0565b60405180910390a2505050565b610e196133a0565b5f5f5f5f5f610e288989613463565b9450945094509450945060028563ffffffff1614610e7b576040517f08c379a0000000000000000000000000000000000000000000000000000000008152600401610e7290614c46565b60405180910390fd5b60015f8363ffffffff1681526020019081526020015f205f8267ffffffffffffffff1667ffffffffffffffff1681526020019081526020015f205f9054906101000a900460ff1615610f02576040517f08c379a0000000000000000000000000000000000000000000000000000000008152600401610ef990614cae565b60405180910390fd5b6001805f8463ffffffff1681526020019081526020015f205f8367ffffffffffffffff1667ffffffffffffffff1681526020019081526020015f205f6101000a81548160ff0219169083151502179055505f7f000000000000000000000000000000000000000000000000000000000000000073ffffffffffffffffffffffffffffffffffffffff166357ecfd288b8b8b8b6040518563ffffffff1660e01b8152600401610fb39493929190614d08565b6020604051808303815f875af1158015610fcf573d5f5f3e3d5ffd5b505050506040513d601f19601f82011682018060405250810190610ff39190614905565b905080611035576040517f08c379a000000000000000000000000000000000000000000000000000000000815260040161102c90614d8b565b60405180910390fd5b8360025f8773ffffffffffffffffffffffffffffffffffffffff1673ffffffffffffffffffffffffffffffffffffffff1681526020019081526020015f205f8282546110819190614da9565b925050819055508360085f8282546110999190614da9565b925050819055508473ffffffffffffffffffffffffffffffffffffffff167f750e6bbedd4312ada35caa75e07fc0b85f1a6fc9c675e6962aef8469187110978585426040516110ea93929190614e0c565b60405180910390a28473ffffffffffffffffffffffffffffffffffffffff167fbbce8df9bc3dd1e16bdad8ce933194e245afdf5109e9ff445f0df0772749c7fc8585854260405161113e9493929190614e5f565b60405180910390a25050505050506111546133c2565b50505050565b6002602052805f5260405f205f915090505481565b60075481565b5f5f7f000000000000000000000000000000000000000000000000000000000000000073ffffffffffffffffffffffffffffffffffffffff1663b2ee2f01846040518263ffffffff1660e01b81526004016111d091906146ad565b6040805180830381865afa1580156111ea573d5f5f3e3d5ffd5b505050506040513d601f19601f8201168201806040525081019061120e9190614a2a565b8092508193505050827fbcda76594c7d16f70759709be5f4d948733d479e7649a635f86da7339b5395b68383604051611248929190613f3f565b60405180910390a2915091565b5f61125e6133a0565b5f60095f8473ffffffffffffffffffffffffffffffffffffffff1673ffffffffffffffffffffffffffffffffffffffff1681526020019081526020015f209050806001015f9054906101000a900460ff166112ee576040517f08c379a00000000000000000000000000000000000000000000000000000000081526004016112e590614eec565b60405180910390fd5b806003015481600201546113029190614da9565b421015611344576040517f08c379a000000000000000000000000000000000000000000000000000000000815260040161133b90614f54565b60405180910390fd5b5f60025f8573ffffffffffffffffffffffffffffffffffffffff1673ffffffffffffffffffffffffffffffffffffffff1681526020019081526020015f20549050815f01548111611399575f9250505061169a565b5f825f0154826113a99190614897565b90505f81116113ed576040517f08c379a00000000000000000000000000000000000000000000000000000000081526004016113e490614fbc565b60405180910390fd5b5f60608460010160019054906101000a900460ff161561141e576114118584613495565b809250819350505061147e565b8460010160029054906101000a900473ffffffffffffffffffffffffffffffffffffffff1691506040518060400160405280600c81526020017f4d616e75616c205661756c74000000000000000000000000000000000000000081525090505b5f73ffffffffffffffffffffffffffffffffffffffff168273ffffffffffffffffffffffffffffffffffffffff16036114ec576040517f08c379a00000000000000000000000000000000000000000000000000000000081526004016114e39061477c565b60405180910390fd5b8260025f8973ffffffffffffffffffffffffffffffffffffffff1673ffffffffffffffffffffffffffffffffffffffff1681526020019081526020015f205f8282546115389190614897565b925050819055505f7f000000000000000000000000000000000000000000000000000000000000000073ffffffffffffffffffffffffffffffffffffffff1663a9059cbb84866040518363ffffffff1660e01b815260040161159b9291906148ca565b6020604051808303815f875af11580156115b7573d5f5f3e3d5ffd5b505050506040513d601f19601f820116820180604052508101906115db9190614905565b90508061161d576040517f08c379a00000000000000000000000000000000000000000000000000000000081526004016116149061497a565b60405180910390fd5b4286600201819055508273ffffffffffffffffffffffffffffffffffffffff168873ffffffffffffffffffffffffffffffffffffffff167f13c3494a5b740ce319289f291dff98804d4952ce385365253a97af49e417cd6986854260405161168793929190614fda565b60405180910390a3600196505050505050505b6116a26133c2565b919050565b7f000000000000000000000000000000000000000000000000000000000000000081565b6116d36133dc565b5f6007546008546116e49190614897565b905080821115611729576040517f08c379a000000000000000000000000000000000000000000000000000000000815260040161172090615060565b60405180910390fd5b7f000000000000000000000000000000000000000000000000000000000000000073ffffffffffffffffffffffffffffffffffffffff1663a9059cbb61176d612431565b846040518363ffffffff1660e01b815260040161178b9291906148ca565b6020604051808303815f875af11580156117a7573d5f5f3e3d5ffd5b505050506040513d601f19601f820116820180604052508101906117cb9190614905565b61180a576040517f08c379a00000000000000000000000000000000000000000000000000000000081526004016118019061497a565b60405180910390fd5b8160075f82825461181b9190614da9565b9250508190555061182a612431565b73ffffffffffffffffffffffffffffffffffffffff167f0b6611f2b90ce7e47b1f8bfc81e38fb1a210f6766c91b8c8d5ee36305d7520608360405161186f91906150ee565b60405180910390a25050565b603281565b5f86116118c2576040517f08c379a00000000000000000000000000000000000000000000000000000000081526004016118b990615164565b60405180910390fd5b8461193a575f73ffffffffffffffffffffffffffffffffffffffff168473ffffffffffffffffffffffffffffffffffffffff1603611935576040517f08c379a000000000000000000000000000000000000000000000000000000000815260040161192c906151cc565b60405180910390fd5b611983565b82806119435750815b611982576040517f08c379a000000000000000000000000000000000000000000000000000000000815260040161197990615234565b60405180910390fd5b5b60405180610100016040528087815260200160011515815260200186151581526020018573ffffffffffffffffffffffffffffffffffffffff168152602001841515815260200183151581526020015f81526020018281525060095f3373ffffffffffffffffffffffffffffffffffffffff1673ffffffffffffffffffffffffffffffffffffffff1681526020019081526020015f205f820151815f01556020820151816001015f6101000a81548160ff02191690831515021790555060408201518160010160016101000a81548160ff02191690831515021790555060608201518160010160026101000a81548173ffffffffffffffffffffffffffffffffffffffff021916908373ffffffffffffffffffffffffffffffffffffffff16021790555060808201518160010160166101000a81548160ff02191690831515021790555060a08201518160010160176101000a81548160ff02191690831515021790555060c0820151816002015560e082015181600301559050503373ffffffffffffffffffffffffffffffffffffffff167f0120bbd59d16261d4d4d178cae32a8ab821ac3a63af4f48df70fa02d3f56d0ee8787604051611b46929190615252565b60405180910390a2505050505050565b5f7f000000000000000000000000000000000000000000000000000000000000000073ffffffffffffffffffffffffffffffffffffffff166370a08231306040518263ffffffff1660e01b8152600401611bb09190614269565b602060405180830381865afa158015611bcb573d5f5f3e3d5ffd5b505050506040513d601f19601f82011682018060405250810190611bef9190615279565b905090565b611bfc6133dc565b611c055f61372d565b565b611c0f613884565b60095f8373ffffffffffffffffffffffffffffffffffffffff1673ffffffffffffffffffffffffffffffffffffffff1681526020019081526020015f20604051806101000160405290815f8201548152602001600182015f9054906101000a900460ff161515151581526020016001820160019054906101000a900460ff161515151581526020016001820160029054906101000a900473ffffffffffffffffffffffffffffffffffffffff1673ffffffffffffffffffffffffffffffffffffffff1673ffffffffffffffffffffffffffffffffffffffff1681526020016001820160169054906101000a900460ff161515151581526020016001820160179054906101000a900460ff16151515158152602001600282015481526020016003820154815250509050919050565b6003602052805f5260405f205f915090505481565b5f60035f8381526020019081526020015f205490505f60045f8481526020019081526020015f2090505f5f90505b8180549050811015611ffd575f7f000000000000000000000000000000000000000000000000000000000000000073ffffffffffffffffffffffffffffffffffffffff1663dd62ed3e848481548110611ddc57611ddb6149bf565b5b905f5260205f20015f9054906101000a900473ffffffffffffffffffffffffffffffffffffffff16306040518363ffffffff1660e01b8152600401611e229291906152a4565b602060405180830381865afa158015611e3d573d5f5f3e3d5ffd5b505050506040513d601f19601f82011682018060405250810190611e619190615279565b90505f60065f858581548110611e7a57611e796149bf565b5b905f5260205f20015f9054906101000a900473ffffffffffffffffffffffffffffffffffffffff1673ffffffffffffffffffffffffffffffffffffffff1673ffffffffffffffffffffffffffffffffffffffff1681526020019081526020015f2054905080821115611fee575f8183611ef39190614897565b90505f7f000000000000000000000000000000000000000000000000000000000000000073ffffffffffffffffffffffffffffffffffffffff166370a08231878781548110611f4557611f446149bf565b5b905f5260205f20015f9054906101000a900473ffffffffffffffffffffffffffffffffffffffff166040518263ffffffff1660e01b8152600401611f899190614269565b602060405180830381865afa158015611fa4573d5f5f3e3d5ffd5b505050506040513d601f19601f82011682018060405250810190611fc89190615279565b90505f828210611fd85782611fda565b815b90508088611fe89190614da9565b97505050505b50508080600101915050611d80565b5050919050565b6009602052805f5260405f205f91509050805f015490806001015f9054906101000a900460ff16908060010160019054906101000a900460ff16908060010160029054906101000a900473ffffffffffffffffffffffffffffffffffffffff16908060010160169054906101000a900460ff16908060010160179054906101000a900460ff16908060020154908060030154905088565b6120a36133a0565b5f73ffffffffffffffffffffffffffffffffffffffff168173ffffffffffffffffffffffffffffffffffffffff1603612111576040517f08c379a00000000000000000000000000000000000000000000000000000000081526004016121089061477c565b60405180910390fd5b5f8211612153576040517f08c379a000000000000000000000000000000000000000000000000000000000815260040161214a906147e4565b60405180910390fd5b8160035f8581526020019081526020015f205410156121a7576040517f08c379a000000000000000000000000000000000000000000000000000000000815260040161219e9061484c565b60405180910390fd5b5f5f90505f60045f8681526020019081526020015f2090505f5f90505b8180549050811015612253573373ffffffffffffffffffffffffffffffffffffffff168282815481106121fa576121f96149bf565b5b905f5260205f20015f9054906101000a900473ffffffffffffffffffffffffffffffffffffffff1673ffffffffffffffffffffffffffffffffffffffff16036122465760019250612253565b80806001019150506121c4565b5081612294576040517f08c379a000000000000000000000000000000000000000000000000000000000815260040161228b9061533b565b60405180910390fd5b8360035f8781526020019081526020015f205f8282546122b49190614897565b925050819055508360085f8282546122cc9190614897565b925050819055507f000000000000000000000000000000000000000000000000000000000000000073ffffffffffffffffffffffffffffffffffffffff1663a9059cbb84866040518363ffffffff1660e01b815260040161232e9291906148ca565b6020604051808303815f875af115801561234a573d5f5f3e3d5ffd5b505050506040513d601f19601f8201168201806040525081019061236e9190614905565b6123ad576040517f08c379a00000000000000000000000000000000000000000000000000000000081526004016123a49061497a565b60405180910390fd5b8273ffffffffffffffffffffffffffffffffffffffff16857f25b31639530a8d51f31c71ba71d187ced0b6a2b9e82adeef4026262bf08eb89886426040516123f6929190614998565b60405180910390a350506124086133c2565b505050565b7f000000000000000000000000000000000000000000000000000000000000000081565b5f5f5f9054906101000a900473ffffffffffffffffffffffffffffffffffffffff16905090565b6004602052815f5260405f208181548110612471575f80fd5b905f5260205f20015f915091509054906101000a900473ffffffffffffffffffffffffffffffffffffffff1681565b6006602052805f5260405f205f915090505481565b6124bd6133a0565b5f81116124ff576040517f08c379a00000000000000000000000000000000000000000000000000000000081526004016124f6906147e4565b60405180910390fd5b7f000000000000000000000000000000000000000000000000000000000000000073ffffffffffffffffffffffffffffffffffffffff166323b872dd3330846040518463ffffffff1660e01b815260040161255c93929190615359565b6020604051808303815f875af1158015612578573d5f5f3e3d5ffd5b505050506040513d601f19601f8201168201806040525081019061259c9190614905565b6125db576040517f08c379a00000000000000000000000000000000000000000000000000000000081526004016125d29061497a565b60405180910390fd5b8060025f3373ffffffffffffffffffffffffffffffffffffffff1673ffffffffffffffffffffffffffffffffffffffff1681526020019081526020015f205f8282546126279190614da9565b925050819055508060085f82825461263f9190614da9565b925050819055503373ffffffffffffffffffffffffffffffffffffffff167fe3407208b14fa025330ca187030f118a1c0cdb604aba93ba45c862e6095aee278260405161268c9190613eb9565b60405180910390a261269c6133c2565b50565b606060045f8381526020019081526020015f2080548060200260200160405190810160405280929190818152602001828054801561272f57602002820191905f5260205f20905b815f9054906101000a900473ffffffffffffffffffffffffffffffffffffffff1673ffffffffffffffffffffffffffffffffffffffff16815260200190600101908083116126e6575b50505050509050919050565b600a602052805f5260405f205f91509050805f015f9054906101000a900473ffffffffffffffffffffffffffffffffffffffff169080600101805461277f90614afd565b80601f01602080910402602001604051908101604052809291908181526020018280546127ab90614afd565b80156127f65780601f106127cd576101008083540402835291602001916127f6565b820191905f5260205f20905b8154815290600101906020018083116127d957829003601f168201915b505050505090806002015490806003015490806004015f9054906101000a900460ff16905085565b6128266133dc565b5f73ffffffffffffffffffffffffffffffffffffffff168373ffffffffffffffffffffffffffffffffffffffff1603612894576040517f08c379a000000000000000000000000000000000000000000000000000000000815260040161288b906153d8565b60405180910390fd5b6040518060a001604052808473ffffffffffffffffffffffffffffffffffffffff16815260200183815260200182815260200142815260200160011515815250600a5f600b5481526020019081526020015f205f820151815f015f6101000a81548173ffffffffffffffffffffffffffffffffffffffff021916908373ffffffffffffffffffffffffffffffffffffffff1602179055506020820151816001019081612940919061557b565b5060408201518160020155606082015181600301556080820151816004015f6101000a81548160ff021916908315150217905550905050600b547ffb38b70e09eaec9bb0ba4c2562989ac806e9a1c93d5870b5f9107206b12fd0fe83856040516129ab92919061564a565b60405180910390a2600b5f8154809291906129c590615678565b9190505550505050565b6129d76133a0565b5f60055f8473ffffffffffffffffffffffffffffffffffffffff1673ffffffffffffffffffffffffffffffffffffffff1681526020019081526020015f205490505f5f1b8103612a5c576040517f08c379a0000000000000000000000000000000000000000000000000000000008152600401612a5390615709565b60405180910390fd5b8273ffffffffffffffffffffffffffffffffffffffff163373ffffffffffffffffffffffffffffffffffffffff1614612aca576040517f08c379a0000000000000000000000000000000000000000000000000000000008152600401612ac190615771565b60405180910390fd5b5f8211612b0c576040517f08c379a0000000000000000000000000000000000000000000000000000000008152600401612b03906147e4565b60405180910390fd5b5f7f000000000000000000000000000000000000000000000000000000000000000073ffffffffffffffffffffffffffffffffffffffff1663dd62ed3e85306040518363ffffffff1660e01b8152600401612b689291906152a4565b602060405180830381865afa158015612b83573d5f5f3e3d5ffd5b505050506040513d601f19601f82011682018060405250810190612ba79190615279565b905082811015612bec576040517f08c379a0000000000000000000000000000000000000000000000000000000008152600401612be3906157d9565b60405180910390fd5b7f000000000000000000000000000000000000000000000000000000000000000073ffffffffffffffffffffffffffffffffffffffff166323b872dd8530866040518463ffffffff1660e01b8152600401612c4993929190615359565b6020604051808303815f875af1158015612c65573d5f5f3e3d5ffd5b505050506040513d601f19601f82011682018060405250810190612c899190614905565b612cc8576040517f08c379a0000000000000000000000000000000000000000000000000000000008152600401612cbf9061497a565b60405180910390fd5b8260035f8481526020019081526020015f205f828254612ce89190614da9565b925050819055508260085f828254612d009190614da9565b925050819055508260065f8673ffffffffffffffffffffffffffffffffffffffff1673ffffffffffffffffffffffffffffffffffffffff1681526020019081526020015f205f828254612d539190614da9565b925050819055508373ffffffffffffffffffffffffffffffffffffffff16827fdc2401d7da82ac39e87d8d8c3684544035f1bf1010487362688da79d940f429185604051612da19190613eb9565b60405180910390a35050612db36133c2565b5050565b5f73ffffffffffffffffffffffffffffffffffffffff168173ffffffffffffffffffffffffffffffffffffffff1603612e25576040517f08c379a0000000000000000000000000000000000000000000000000000000008152600401612e1c90615841565b60405180910390fd5b5f5f1b60055f8373ffffffffffffffffffffffffffffffffffffffff1673ffffffffffffffffffffffffffffffffffffffff1681526020019081526020015f205414612ea6576040517f08c379a0000000000000000000000000000000000000000000000000000000008152600401612e9d906158a9565b60405180910390fd5b8073ffffffffffffffffffffffffffffffffffffffff163373ffffffffffffffffffffffffffffffffffffffff1614612f14576040517f08c379a0000000000000000000000000000000000000000000000000000000008152600401612f0b90615911565b60405180910390fd5b603260045f8481526020019081526020015f208054905010612f6b576040517f08c379a0000000000000000000000000000000000000000000000000000000008152600401612f6290615979565b60405180910390fd5b60045f8381526020019081526020015f2081908060018154018082558091505060019003905f5260205f20015f9091909190916101000a81548173ffffffffffffffffffffffffffffffffffffffff021916908373ffffffffffffffffffffffffffffffffffffffff1602179055508160055f8373ffffffffffffffffffffffffffffffffffffffff1673ffffffffffffffffffffffffffffffffffffffff1681526020019081526020015f2081905550817fb4e574799283b23d155035e9002f0a86fea799b7c5bfe0b5dc6288345d0fc1108260405161304c9190614269565b60405180910390a25050565b6130606133dc565b600b5482106130a4576040517f08c379a000000000000000000000000000000000000000000000000000000000815260040161309b90614ab2565b60405180910390fd5b80600a5f8481526020019081526020015f206004015f6101000a81548160ff021916908315150217905550817fb3c3c605d1520cd5bf41301dd5c04929e0ff021b02a10ea259b5a5b2d521a29c826040516130ff9190613afd565b60405180910390a25050565b60085481565b6005602052805f5260405f205f915090505481565b61312e6133dc565b5f73ffffffffffffffffffffffffffffffffffffffff168173ffffffffffffffffffffffffffffffffffffffff160361319e575f6040517f1e4fbdf70000000000000000000000000000000000000000000000000000000081526004016131959190614269565b60405180910390fd5b6131a78161372d565b50565b6001602052815f5260405f20602052805f5260405f205f915091509054906101000a900460ff1681565b600b5481565b5f60605f60095f8573ffffffffffffffffffffffffffffffffffffffff1673ffffffffffffffffffffffffffffffffffffffff1681526020019081526020015f209050806001015f9054906101000a900460ff16613273575f6040518060400160405280601281526020017f506f6c696379206e6f7420656e61626c65640000000000000000000000000000815250925092505061339b565b806003015481600201546132879190614da9565b4210156132cf575f6040518060400160405280601081526020017f436f6f6c646f776e206e6f74206d657400000000000000000000000000000000815250925092505061339b565b5f60025f8673ffffffffffffffffffffffffffffffffffffffff1673ffffffffffffffffffffffffffffffffffffffff1681526020019081526020015f20549050815f0154811161335c575f6040518060400160405280601781526020017f42616c616e63652062656c6f77207468726573686f6c6400000000000000000081525093509350505061339b565b60016040518060400160405280601081526020017f526561647920746f2065786563757465000000000000000000000000000000008152509350935050505b915091565b6133a86137ee565b60026133ba6133b561382f565b613858565b5f0181905550565b60016133d46133cf61382f565b613858565b5f0181905550565b6133e4613861565b73ffffffffffffffffffffffffffffffffffffffff16613402612431565b73ffffffffffffffffffffffffffffffffffffffff161461346157613425613861565b6040517f118cdaa70000000000000000000000000000000000000000000000000000000081526004016134589190614269565b60405180910390fd5b565b5f5f5f5f5f868681019061347791906159d2565b80955081965082975083985084995050505050509295509295909350565b5f60605f5f90505f5f90505f5f90505f5f90505b600b54811015613618575f600a5f8381526020019081526020015f209050806004015f9054906101000a900460ff166134e2575061360b565b5f5f90506040518060400160405280600981526020017f555344432f55534443000000000000000000000000000000000000000000000081525080519060200120826001016040516135349190615ae5565b604051809103902014801561355757508960010160169054906101000a900460ff165b1561356557600190506135e1565b6040518060400160405280600981526020017f555344432f55534454000000000000000000000000000000000000000000000081525080519060200120826001016040516135b39190615ae5565b60405180910390201480156135d657508960010160179054906101000a900460ff165b156135e057600190505b5b806135ed57505061360b565b85826002015411156136085781600201549550829450600193505b50505b80806001019150506134a9565b5080613659576040517f08c379a000000000000000000000000000000000000000000000000000000000815260040161365090615b45565b60405180910390fd5b5f600a5f8481526020019081526020015f209050805f015f9054906101000a900473ffffffffffffffffffffffffffffffffffffffff16816001018080546136a090614afd565b80601f01602080910402602001604051908101604052809291908181526020018280546136cc90614afd565b80156137175780601f106136ee57610100808354040283529160200191613717565b820191905f5260205f20905b8154815290600101906020018083116136fa57829003601f168201915b5050505050905095509550505050509250929050565b5f5f5f9054906101000a900473ffffffffffffffffffffffffffffffffffffffff169050815f5f6101000a81548173ffffffffffffffffffffffffffffffffffffffff021916908373ffffffffffffffffffffffffffffffffffffffff1602179055508173ffffffffffffffffffffffffffffffffffffffff168173ffffffffffffffffffffffffffffffffffffffff167f8be0079c531659141344cd1fd0a4f28419497f9722a3daafe3b4186f6b6457e060405160405180910390a35050565b6137f6613868565b1561382d576040517f3ee5aeb500000000000000000000000000000000000000000000000000000000815260040160405180910390fd5b565b5f7f9b779b17422d0df92223018b32b4d1fa46e071723d6817e2486d003becc55f005f1b905090565b5f819050919050565b5f33905090565b5f600261387b61387661382f565b613858565b5f015414905090565b6040518061010001604052805f81526020015f151581526020015f151581526020015f73ffffffffffffffffffffffffffffffffffffffff1681526020015f151581526020015f151581526020015f81526020015f81525090565b5f604051905090565b5f5ffd5b5f5ffd5b5f819050919050565b613902816138f0565b811461390c575f5ffd5b50565b5f8135905061391d816138f9565b92915050565b5f73ffffffffffffffffffffffffffffffffffffffff82169050919050565b5f61394c82613923565b9050919050565b61395c81613942565b8114613966575f5ffd5b50565b5f8135905061397781613953565b92915050565b5f5f60408385031215613993576139926138e8565b5b5f6139a08582860161390f565b92505060206139b185828601613969565b9150509250929050565b5f819050919050565b5f6139de6139d96139d484613923565b6139bb565b613923565b9050919050565b5f6139ef826139c4565b9050919050565b5f613a00826139e5565b9050919050565b613a10816139f6565b82525050565b5f602082019050613a295f830184613a07565b92915050565b5f63ffffffff82169050919050565b613a4781613a2f565b8114613a51575f5ffd5b50565b5f81359050613a6281613a3e565b92915050565b5f67ffffffffffffffff82169050919050565b613a8481613a68565b8114613a8e575f5ffd5b50565b5f81359050613a9f81613a7b565b92915050565b5f5f60408385031215613abb57613aba6138e8565b5b5f613ac885828601613a54565b9250506020613ad985828601613a91565b9150509250929050565b5f8115159050919050565b613af781613ae3565b82525050565b5f602082019050613b105f830184613aee565b92915050565b5f5ffd5b5f5ffd5b5f5ffd5b5f5f83601f840112613b3757613b36613b16565b5b8235905067ffffffffffffffff811115613b5457613b53613b1a565b5b602083019150836020820283011115613b7057613b6f613b1e565b5b9250929050565b5f5f60208385031215613b8d57613b8c6138e8565b5b5f83013567ffffffffffffffff811115613baa57613ba96138ec565b5b613bb685828601613b22565b92509250509250929050565b5f81519050919050565b5f82825260208201905092915050565b5f819050602082019050919050565b5f819050919050565b613bfd81613beb565b82525050565b5f613c0e8383613bf4565b60208301905092915050565b5f602082019050919050565b5f613c3082613bc2565b613c3a8185613bcc565b9350613c4583613bdc565b805f5b83811015613c75578151613c5c8882613c03565b9750613c6783613c1a565b925050600181019050613c48565b5085935050505092915050565b5f81519050919050565b5f82825260208201905092915050565b5f819050602082019050919050565b613cb4816138f0565b82525050565b5f613cc58383613cab565b60208301905092915050565b5f602082019050919050565b5f613ce782613c82565b613cf18185613c8c565b9350613cfc83613c9c565b805f5b83811015613d2c578151613d138882613cba565b9750613d1e83613cd1565b925050600181019050613cff565b5085935050505092915050565b5f6040820190508181035f830152613d518185613c26565b90508181036020830152613d658184613cdd565b90509392505050565b5f5f60408385031215613d8457613d836138e8565b5b5f613d918582860161390f565b9250506020613da28582860161390f565b9150509250929050565b5f5f83601f840112613dc157613dc0613b16565b5b8235905067ffffffffffffffff811115613dde57613ddd613b1a565b5b602083019150836001820283011115613dfa57613df9613b1e565b5b9250929050565b5f5f5f5f60408587031215613e1957613e186138e8565b5b5f85013567ffffffffffffffff811115613e3657613e356138ec565b5b613e4287828801613dac565b9450945050602085013567ffffffffffffffff811115613e6557613e646138ec565b5b613e7187828801613dac565b925092505092959194509250565b5f60208284031215613e9457613e936138e8565b5b5f613ea184828501613969565b91505092915050565b613eb3816138f0565b82525050565b5f602082019050613ecc5f830184613eaa565b92915050565b5f819050919050565b613ee481613ed2565b8114613eee575f5ffd5b50565b5f81359050613eff81613edb565b92915050565b5f60208284031215613f1a57613f196138e8565b5b5f613f2784828501613ef1565b91505092915050565b613f3981613beb565b82525050565b5f604082019050613f525f830185613f30565b613f5f6020830184613eaa565b9392505050565b5f613f70826139e5565b9050919050565b613f8081613f66565b82525050565b5f602082019050613f995f830184613f77565b92915050565b5f60208284031215613fb457613fb36138e8565b5b5f613fc18482850161390f565b91505092915050565b613fd381613ae3565b8114613fdd575f5ffd5b50565b5f81359050613fee81613fca565b92915050565b5f5f5f5f5f5f60c0878903121561400e5761400d6138e8565b5b5f61401b89828a0161390f565b965050602061402c89828a01613fe0565b955050604061403d89828a01613969565b945050606061404e89828a01613fe0565b935050608061405f89828a01613fe0565b92505060a061407089828a0161390f565b9150509295509295509295565b61408681613ae3565b82525050565b61409581613942565b82525050565b61010082015f8201516140b05f850182613cab565b5060208201516140c3602085018261407d565b5060408201516140d6604085018261407d565b5060608201516140e9606085018261408c565b5060808201516140fc608085018261407d565b5060a082015161410f60a085018261407d565b5060c082015161412260c0850182613cab565b5060e082015161413560e0850182613cab565b50505050565b5f6101008201905061414f5f83018461409b565b92915050565b61415e81613942565b82525050565b5f610100820190506141785f83018b613eaa565b614185602083018a613aee565b6141926040830189613aee565b61419f6060830188614155565b6141ac6080830187613aee565b6141b960a0830186613aee565b6141c660c0830185613eaa565b6141d360e0830184613eaa565b9998505050505050505050565b5f5f5f606084860312156141f7576141f66138e8565b5b5f61420486828701613ef1565b93505060206142158682870161390f565b925050604061422686828701613969565b9150509250925092565b5f61423a826139e5565b9050919050565b61424a81614230565b82525050565b5f6020820190506142635f830184614241565b92915050565b5f60208201905061427c5f830184614155565b92915050565b5f5f60408385031215614298576142976138e8565b5b5f6142a585828601613ef1565b92505060206142b68582860161390f565b9150509250929050565b5f81519050919050565b5f82825260208201905092915050565b5f819050602082019050919050565b5f6142f4838361408c565b60208301905092915050565b5f602082019050919050565b5f614316826142c0565b61432081856142ca565b935061432b836142da565b805f5b8381101561435b57815161434288826142e9565b975061434d83614300565b92505060018101905061432e565b5085935050505092915050565b5f6020820190508181035f830152614380818461430c565b905092915050565b5f81519050919050565b5f82825260208201905092915050565b8281835e5f83830152505050565b5f601f19601f8301169050919050565b5f6143ca82614388565b6143d48185614392565b93506143e48185602086016143a2565b6143ed816143b0565b840191505092915050565b5f60a08201905061440b5f830188614155565b818103602083015261441d81876143c0565b905061442c6040830186613eaa565b6144396060830185613eaa565b6144466080830184613aee565b9695505050505050565b5f5ffd5b7f4e487b71000000000000000000000000000000000000000000000000000000005f52604160045260245ffd5b61448a826143b0565b810181811067ffffffffffffffff821117156144a9576144a8614454565b5b80604052505050565b5f6144bb6138df565b90506144c78282614481565b919050565b5f67ffffffffffffffff8211156144e6576144e5614454565b5b6144ef826143b0565b9050602081019050919050565b828183375f83830152505050565b5f61451c614517846144cc565b6144b2565b90508281526020810184848401111561453857614537614450565b5b6145438482856144fc565b509392505050565b5f82601f83011261455f5761455e613b16565b5b813561456f84826020860161450a565b91505092915050565b5f5f5f6060848603121561458f5761458e6138e8565b5b5f61459c86828701613969565b935050602084013567ffffffffffffffff8111156145bd576145bc6138ec565b5b6145c98682870161454b565b92505060406145da8682870161390f565b9150509250925092565b5f5f604083850312156145fa576145f96138e8565b5b5f61460785828601613969565b92505060206146188582860161390f565b9150509250929050565b5f5f60408385031215614638576146376138e8565b5b5f61464585828601613ef1565b925050602061465685828601613969565b9150509250929050565b5f5f60408385031215614676576146756138e8565b5b5f6146838582860161390f565b925050602061469485828601613fe0565b9150509250929050565b6146a781613ed2565b82525050565b5f6020820190506146c05f83018461469e565b92915050565b5f5f604083850312156146dc576146db6138e8565b5b5f6146e98582860161390f565b92505060206146fa85828601613a91565b9150509250929050565b5f6040820190506147175f830185613aee565b818103602083015261472981846143c0565b90509392505050565b7f496e76616c69642064657374696e6174696f6e000000000000000000000000005f82015250565b5f614766601383614392565b915061477182614732565b602082019050919050565b5f6020820190508181035f8301526147938161475a565b9050919050565b7f416d6f756e74206d7573742062652067726561746572207468616e20300000005f82015250565b5f6147ce601d83614392565b91506147d98261479a565b602082019050919050565b5f6020820190508181035f8301526147fb816147c2565b9050919050565b7f496e73756666696369656e742062616c616e63650000000000000000000000005f82015250565b5f614836601483614392565b915061484182614802565b602082019050919050565b5f6020820190508181035f8301526148638161482a565b9050919050565b7f4e487b71000000000000000000000000000000000000000000000000000000005f52601160045260245ffd5b5f6148a1826138f0565b91506148ac836138f0565b92508282039050818111156148c4576148c361486a565b5b92915050565b5f6040820190506148dd5f830185614155565b6148ea6020830184613eaa565b9392505050565b5f815190506148ff81613fca565b92915050565b5f6020828403121561491a576149196138e8565b5b5f614927848285016148f1565b91505092915050565b7f5472616e73666572206661696c656400000000000000000000000000000000005f82015250565b5f614964600f83614392565b915061496f82614930565b602082019050919050565b5f6020820190508181035f83015261499181614958565b9050919050565b5f6040820190506149ab5f830185613eaa565b6149b86020830184613eaa565b9392505050565b7f4e487b71000000000000000000000000000000000000000000000000000000005f52603260045260245ffd5b6149f581613beb565b81146149ff575f5ffd5b50565b5f81519050614a10816149ec565b92915050565b5f81519050614a24816138f9565b92915050565b5f5f60408385031215614a4057614a3f6138e8565b5b5f614a4d85828601614a02565b9250506020614a5e85828601614a16565b9150509250929050565b7f496e76616c696420706f6f6c20696e64657800000000000000000000000000005f82015250565b5f614a9c601283614392565b9150614aa782614a68565b602082019050919050565b5f6020820190508181035f830152614ac981614a90565b9050919050565b7f4e487b71000000000000000000000000000000000000000000000000000000005f52602260045260245ffd5b5f6002820490506001821680614b1457607f821691505b602082108103614b2757614b26614ad0565b5b50919050565b5f819050815f5260205f209050919050565b5f8154614b4b81614afd565b614b558186614392565b9450600182165f8114614b6f5760018114614b8557614bb7565b60ff198316865281151560200286019350614bb7565b614b8e85614b2d565b5f5b83811015614baf57815481890152600182019150602081019050614b90565b808801955050505b50505092915050565b5f6060820190508181035f830152614bd88186614b3f565b9050614be76020830185613eaa565b614bf46040830184613eaa565b949350505050565b7f496e76616c696420434354502076657273696f6e0000000000000000000000005f82015250565b5f614c30601483614392565b9150614c3b82614bfc565b602082019050919050565b5f6020820190508181035f830152614c5d81614c24565b9050919050565b7f416c72656164792070726f6365737365640000000000000000000000000000005f82015250565b5f614c98601183614392565b9150614ca382614c64565b602082019050919050565b5f6020820190508181035f830152614cc581614c8c565b9050919050565b5f82825260208201905092915050565b5f614ce78385614ccc565b9350614cf48385846144fc565b614cfd836143b0565b840190509392505050565b5f6040820190508181035f830152614d21818688614cdc565b90508181036020830152614d36818486614cdc565b905095945050505050565b7f4343545020726563656976654d657373616765206661696c65640000000000005f82015250565b5f614d75601a83614392565b9150614d8082614d41565b602082019050919050565b5f6020820190508181035f830152614da281614d69565b9050919050565b5f614db3826138f0565b9150614dbe836138f0565b9250828201905080821115614dd657614dd561486a565b5b92915050565b5f614df6614df1614dec84613a2f565b6139bb565b6138f0565b9050919050565b614e0681614ddc565b82525050565b5f606082019050614e1f5f830186613eaa565b614e2c6020830185614dfd565b614e396040830184613eaa565b949350505050565b614e4a81613a2f565b82525050565b614e5981613a68565b82525050565b5f608082019050614e725f830187613eaa565b614e7f6020830186614e41565b614e8c6040830185614e50565b614e996060830184613eaa565b95945050505050565b7f506f6c696379206e6f7420656e61626c656400000000000000000000000000005f82015250565b5f614ed6601283614392565b9150614ee182614ea2565b602082019050919050565b5f6020820190508181035f830152614f0381614eca565b9050919050565b7f436f6f6c646f776e206e6f74206d6574000000000000000000000000000000005f82015250565b5f614f3e601083614392565b9150614f4982614f0a565b602082019050919050565b5f6020820190508181035f830152614f6b81614f32565b9050919050565b7f4e6f2065786365737320746f206d616e616765000000000000000000000000005f82015250565b5f614fa6601383614392565b9150614fb182614f72565b602082019050919050565b5f6020820190508181035f830152614fd381614f9a565b9050919050565b5f606082019050614fed5f830186613eaa565b8181036020830152614fff81856143c0565b905061500e6040830184613eaa565b949350505050565b7f496e73756666696369656e7420617661696c61626c652062616c616e636500005f82015250565b5f61504a601e83614392565b915061505582615016565b602082019050919050565b5f6020820190508181035f8301526150778161503e565b9050919050565b7f456d657267656e6379207769746864726177616c202d206163636f756e74696e5f8201527f67206f666673657420747261636b656400000000000000000000000000000000602082015250565b5f6150d8603083614392565b91506150e38261507e565b604082019050919050565b5f6040820190506151015f830184613eaa565b8181036020830152615112816150cc565b905092915050565b7f5468726573686f6c64206d75737420626520706f7369746976650000000000005f82015250565b5f61514e601a83614392565b91506151598261511a565b602082019050919050565b5f6020820190508181035f83015261517b81615142565b9050919050565b7f496e76616c6964207661756c74206164647265737300000000000000000000005f82015250565b5f6151b6601583614392565b91506151c182615182565b602082019050919050565b5f6020820190508181035f8301526151e3816151aa565b9050919050565b7f4d75737420616c6c6f77206174206c65617374206f6e6520706f6f6c000000005f82015250565b5f61521e601c83614392565b9150615229826151ea565b602082019050919050565b5f6020820190508181035f83015261524b81615212565b9050919050565b5f6040820190506152655f830185613eaa565b6152726020830184613aee565b9392505050565b5f6020828403121561528e5761528d6138e8565b5b5f61529b84828501614a16565b91505092915050565b5f6040820190506152b75f830185614155565b6152c46020830184614155565b9392505050565b7f4e6f7420617574686f72697a65643a2073656e646572206e6f742072656769735f8201527f746572656420746f207468697320757365724964000000000000000000000000602082015250565b5f615325603483614392565b9150615330826152cb565b604082019050919050565b5f6020820190508181035f83015261535281615319565b9050919050565b5f60608201905061536c5f830186614155565b6153796020830185614155565b6153866040830184613eaa565b949350505050565b7f496e76616c696420706f6f6c20616464726573730000000000000000000000005f82015250565b5f6153c2601483614392565b91506153cd8261538e565b602082019050919050565b5f6020820190508181035f8301526153ef816153b6565b9050919050565b5f6020601f8301049050919050565b5f82821b905092915050565b5f600883026154407fffffffffffffffffffffffffffffffffffffffffffffffffffffffffffffffff82615405565b61544a8683615405565b95508019841693508086168417925050509392505050565b5f61547c615477615472846138f0565b6139bb565b6138f0565b9050919050565b5f819050919050565b61549583615462565b6154a96154a182615483565b848454615411565b825550505050565b5f5f905090565b6154c06154b1565b6154cb81848461548c565b505050565b5b818110156154ee576154e35f826154b8565b6001810190506154d1565b5050565b601f8211156155335761550481614b2d565b61550d846153f6565b8101602085101561551c578190505b615530615528856153f6565b8301826154d0565b50505b505050565b5f82821c905092915050565b5f6155535f1984600802615538565b1980831691505092915050565b5f61556b8383615544565b9150826002028217905092915050565b61558482614388565b67ffffffffffffffff81111561559d5761559c614454565b5b6155a78254614afd565b6155b28282856154f2565b5f60209050601f8311600181146155e3575f84156155d1578287015190505b6155db8582615560565b865550615642565b601f1984166155f186614b2d565b5f5b82811015615618578489015182556001820191506020850194506020810190506155f3565b868310156156355784890151615631601f891682615544565b8355505b6001600288020188555050505b505050505050565b5f6040820190508181035f83015261566281856143c0565b90506156716020830184614155565b9392505050565b5f615682826138f0565b91507fffffffffffffffffffffffffffffffffffffffffffffffffffffffffffffffff82036156b4576156b361486a565b5b600182019050919050565b7f57616c6c6574206e6f74207265676973746572656400000000000000000000005f82015250565b5f6156f3601583614392565b91506156fe826156bf565b602082019050919050565b5f6020820190508181035f830152615720816156e7565b9050919050565b7f4f6e6c792077616c6c6574206f776e65722063616e2070756c6c2066756e64735f82015250565b5f61575b602083614392565b915061576682615727565b602082019050919050565b5f6020820190508181035f8301526157888161574f565b9050919050565b7f496e73756666696369656e7420616c6c6f77616e6365000000000000000000005f82015250565b5f6157c3601683614392565b91506157ce8261578f565b602082019050919050565b5f6020820190508181035f8301526157f0816157b7565b9050919050565b7f496e76616c69642077616c6c65740000000000000000000000000000000000005f82015250565b5f61582b600e83614392565b9150615836826157f7565b602082019050919050565b5f6020820190508181035f8301526158588161581f565b9050919050565b7f57616c6c657420616c72656164792072656769737465726564000000000000005f82015250565b5f615893601983614392565b915061589e8261585f565b602082019050919050565b5f6020820190508181035f8301526158c081615887565b9050919050565b7f4f6e6c792077616c6c6574206f776e65722063616e20726567697374657200005f82015250565b5f6158fb601e83614392565b9150615906826158c7565b602082019050919050565b5f6020820190508181035f830152615928816158ef565b9050919050565b7f546f6f206d616e792077616c6c657473207265676973746572656400000000005f82015250565b5f615963601b83614392565b915061596e8261592f565b602082019050919050565b5f6020820190508181035f83015261599081615957565b9050919050565b5f6159a182613923565b9050919050565b6159b181615997565b81146159bb575f5ffd5b50565b5f813590506159cc816159a8565b92915050565b5f5f5f5f5f60a086880312156159eb576159ea6138e8565b5b5f6159f888828901613a54565b9550506020615a09888289016159be565b9450506040615a1a8882890161390f565b9350506060615a2b88828901613a54565b9250506080615a3c88828901613a91565b9150509295509295909350565b5f81905092915050565b5f819050815f5260205f209050919050565b5f8154615a7181614afd565b615a7b8186615a49565b9450600182165f8114615a955760018114615aaa57615adc565b60ff1983168652811515820286019350615adc565b615ab385615a53565b5f5b83811015615ad457815481890152600182019150602081019050615ab5565b838801955050505b50505092915050565b5f615af08284615a65565b915081905092915050565b7f4e6f207375697461626c6520706f6f6c20666f756e64000000000000000000005f82015250565b5f615b2f601683614392565b9150615b3a82615afb565b602082019050919050565b5f6020820190508181035f830152615b5c81615b23565b905091905056fea26469706673582212201a92755839ae026d015b3745179750dc1da54314879741337721100d2a6c566e64736f6c634300081e0033","linkReferences":{}},"methodIdentifiers":{"MAX_WALLETS_PER_USER()":"56ae5b7b","availablePools(uint256)":"bb94f919","canExecutePolicy(address)":"fa5604ee","cctpMessageTransmitter()":"8c73eb04","configureTreasuryPolicy(uint256,bool,address,bool,bool,uint256)":"6914512b","deposit(uint256)":"b6b55f25","disablePolicy()":"14fa7009","emergencyWithdraw(uint256)":"5312ea8e","emergencyWithdrawnTotal()":"2e8b1f9a","executeTreasuryPolicy(address)":"378d23ae","getAggregatedBalance(bytes32)":"80b30379","getContractBalance()":"6f9fb98a","getMultiplePrices(bytes32[])":"1b716b77","getPrice(bytes32)":"31d98b3f","getUserPolicy(address)":"761d9e68","getUserWallets(bytes32)":"b96091bc","isCctpNonceProcessed(uint32,uint64)":"05b2799a","owner()":"8da5cb5b","poolCount()":"f525cb68","processedCctpNonces(uint256,uint64)":"f30b5a76","pullFunds(address,uint256)":"c6cdbcbb","pulledAmount(address)":"a73de9e4","receiveCctpMessage(bytes,bytes)":"24e38218","registerPool(address,string,uint256)":"c04df428","registerWallet(bytes32,address)":"cc2056cb","renounceOwnership()":"715018a6","setPoolActive(uint256,bool)":"ea17fa93","storkOracle()":"053734dc","totalTreasuryBalance()":"ec4a59d9","transferOwnership(address)":"f2fde38b","updatePoolAPY(uint256,uint256)":"1f913f12","usdc()":"3e413bee","userBalances(address)":"26224c64","userIdBalances(bytes32)":"7c1b7548","userPolicies(address)":"87a22944","userWallets(bytes32,uint256)":"9443cd80","walletToUser(address)":"ef8de2d8","withdraw(uint256,address)":"00f714ce","withdrawByUserId(bytes32,uint256,address)":"8b47a880"},"id":29}